:10095300102A303132333435363738394142434443
:100963004546084E57656C636F6D65210F3A456EBA
:100973007465722050617373776F72642E0F084130
:100983006363657373204772616E746564210E1728
:100993004163636573732044656E6965642105254E
:0C09A3006162636465054900000000000B
:10088C00120A4FE4F556120ADF0556E556C39403D7
:10089C0040F4120A737557C4120AFF1208F1120AB7
:1008AC00DF755C00755D00755E497B007A0079250B
:1008BC001209B0EF4E701A120A97120B59E4F55642
:1008CC00120ADF0556E556C3940540F4120B3F801F
:1008DC00C1120ABBE4F556E556C3940350B4120A90
:0508EC00DF055680F25B
:100A4F001209F1120BB7755780120AFFE4F55674AD
:100A5F004E2556F8E6F558120B1F0556E556C3946A
:040A6F000840EC222D
:100A73001209F1120BB7755780120AFFE4F5567489
:100A83003A2556F8E6F558120B1F0556E556C3945A
:040A93000F40EC2202
:100A97001209F1120BB7755780120AFFE4F5567465
:100AA700082556F8E6F558120B1F0556E556C39468
:040AB7000F40EC22DE
:100ABB001209F1120BB7755780120AFFE4F5567441
:100ACB00172556F8E6F558120B1F0556E556C39435
:040ADB000E40EC22BB
:100ADF00758901E4FFFEE4F58AF58CD28C308DFD2B
:0F0AEF00C28CC28D0FBF00010EEF640E4E70E778
:010AFE0022D5
:1008F100E4F559F55AE4F55BAF5B7401A80708808C
:1009010002C333D8FCF4F580AF80EF54F064F0609B
:100911002A7E10E4FDEE5F60070DEE25E0FE80F516
:10092100ED25E025E0255B242AF8E6FF74492556EC
:10093100F8A6070556755858120B1F055BE55BD3E2
:10094100940340B4C3E55A9405E55964809480400A
:01095100A401
:010952002282
:0609B0008B598A5A895B95
:1009B600E4F55FF560FFFEAB5CAA5DA95E8F828EF3
:1009C60083120A22FDAB59AA5AA95B8F828E831223
:1009D6000A226D6006755F007560010FBF00010E8B
:0A09E600EF64054E70D1AE5FAF6004
:0109F00022E4
:100B3F00C286D287E4FDFC120ADF0DBD00010CED69
:090B4F0064034C70F2D286D287D7
:010B5800227A
:100B5900D286C287E4FDFC120ADF0DBD00010CED4F
:090B690064034C70F2D286D287BD
:010B72002260
:1009F100755730120B73120BA1755728120AFF128B
:100A01000BA175570F120AFF120BA1755706120A97
:100A1100FF120BA1755780120AFF7FF47E01020BB2
:010A2100A52F
:100AFF008557615357F0E557C4540FF557120B73D1
:100B0F00E561540FF557120B737F3C7E00020BA566
:100B1F008558615358F0E558C4540FF558120B8A95
:100B2F00E561540FF558120B8A7F3C7E00020BA52E
:100B730053577F4357408557A07FC27E01120BA571
:070B83005357BF8557A02264
:100B8A004358C05358DF8558A07FC27E01120BA577
:070B9A005358BF8558A0224B
:0D0BB700755701120AFF7FF47E01020BA5A5
:040BA1007FF47E015E
:100BA500E4FDFCC3ED9FEC9E50070DBD00010C80DC
:010BB500F24D
:010BB600221C
:03000000020800F3
:0C080000787FE4F6D8FD7581610208479E
:100A2200BB010CE58229F582E5833AF583E0225089
:100A320006E92582F8E622BBFE06E92582F8E222D3
:0D0A4200E58229F582E5833AF583E49322ED
:10080C0002088CE493A3F8E493A34003F68001F26E
:10081C0008DFF48029E493A3F85407240CC8C333ED
:10082C00C4540F4420C8834004F456800146F6DFBC
:10083C00E4800B0102040810204080900953E47EF0
:10084C00019360BCA3FF543F30E509541FFEE493B1
:10085C00A360010ECF54C025E060A840B8E493A378
:10086C00FAE493A3F8E493A3C8C582C8CAC583CAA3
:10087C00F0A3C8C582C8CAC583CADFE9DEE780BE5B
:0109AF000047
:00000001FF
