:100A400002080000022C0000084257656C636F6DBD
:100A500065210F2E456E7465722050617373776F38
:100A600072642E0F0A416363657373204772616E6F
:100A7000746564210E194163636573732044656E68
:100A80006965642105273132333435053D000000A6
:020A9000000064
:10088C00C2B0120B8F7F647E00120B6F120BB57F00
:10089C00C4120BF6802CD296D295D294C293C292EB
:1008AC00C291C290209405120908800E2095051261
:1008BC00097380062096031209DEE50964014508D8
:1008CC0060097F1E7E00120B6F80CB754D00754E3C
:1008DC0000754F3D7B007A007927120A93EF4E701A
:1008EC0017120AD7120C1D7FC87E00120B6F120C48
:0C08FC001A7FC87E00020B6F120B09224D
:100B8F00E4F54AF54B120BDB7442254BF8E6FF6098
:100B9F0014120C08054BE54B7002054A7F057E00C9
:050BAF00120B6F80E352
:010BB400221E
:100BB500E4F54AF54B120BDB742E254BF8E6FF6086
:100BC50014120C08054BE54B7002054A7F057E00A3
:050BD500120B6F80E32C
:010BDA0022F8
:100AD700E4F54AF54B120BDBE4F54AF54B740A25AE
:100AE7004BF8E6FF120C087F057E00120B6F054BD3
:100AF700E54B7002054AC3940EE54A648094804032
:010B0700DC11
:010B080022CA
:100B0900E4F54AF54B120BDBE4F54AF54B7419256C
:100B19004BF8E6FF120C087F057E00120B6F054BA0
:100B2900E54B7002054AC3940EE54A6480948040FF
:010B3900DCDF
:010B3A002298
:060A93008B4A8A4B894CDE
:100A9900E4F552F553AB4AAA4BA94C8551828550CE
:100AA90083120B3BFF6022AB4DAA4EA94F855182A1
:100AB900855083120B3B6F60067552007553010513
:0D0AC90051E55170D0055080CCAE52AF53B6
:010AD60022FD
:10090800D293D292D291D290C296C295C29420909C
:10091800147F31120C08743D252DF87631052DE52C
:100928002D7002052C2091147F34120C08743D257B
:100938002DF87634052DE52D7002052C2092147FB4
:1009480037120C08743D252DF87637052DE52D70E6
:1009580002052C2093147F2A120C08743D252DF8CB
:0B096800762A052DE52D7002052C22DB
:10097300D293D292D291D290C296C295C294209031
:10098300147F32120C08743D252DF87632052DE5BF
:100993002D7002052C2091147F35120C08743D250F
:1009A3002DF87635052DE52D7002052C2092147F48
:1009B30038120C08743D252DF87638052DE52D7079
:1009C30002052C2093147F30120C08743D252DF85A
:0B09D3007630052DE52D7002052C226A
:1009DE00D293D292D291D290C296C295C2942090C6
:1009EE00147F33120C08743D252DF87633052DE552
:1009FE002D7002052C2091147F36120C08743D25A3
:100A0E002DF87636052DE52D7002052C2092147FDB
:100A1E0039120C08743D252DF87639052DE52D700B
:100A2E0002052C20930B7F23120C08750800750904
:020A3E00012293
:030C1A00C2B02243
:030C1D00D2B02230
:070B6800120BF67F0A7E006C
:100B6F00E4FDFCC3ED9FEC9E5015E4FBFA0BBB00BC
:0F0B7F00010ABA04F8BBFBF50DBD00010C80E4C0
:010B8E002244
:100BF6008FA0C2B5C2B6D2B77F017E00120B6FC2FC
:020C0600B72213
:100C08008FA0D2B5C2B6D2B77F017E00120B6FC2D9
:020C1800B72201
:100BDB007F38120B687F0F120B687F01120B687F37
:0B0BEB0080120BF67F0A7E00020B6FE9
:03000000020800F3
:0C080000787FE4F6D8FD758153020847AC
:100B3B00BB010CE58229F582E5833AF583E022506F
:100B4B0006E92582F8E622BBFE06E92582F8E222B9
:0D0B5B00E58229F582E5833AF583E49322D3
:10080C0002088CE493A3F8E493A34003F68001F26E
:10081C0008DFF48029E493A3F85407240CC8C333ED
:10082C00C4540F4420C8834004F456800146F6DFBC
:10083C00E4800B0102040810204080900A40E47E02
:10084C00019360BCA3FF543F30E509541FFEE493B1
:10085C00A360010ECF54C025E060A840B8E493A378
:10086C00FAE493A3F8E493A3C8C582C8CAC583CAA3
:10087C00F0A3C8C582C8CAC583CADFE9DEE780BE5B
:010A92000063
:00000001FF
